{
  "_format": "hh-sol-artifact-1",
  "contractName": "Certificate",
  "sourceName": "contracts/Certificate.sol",
  "abi": [
    {
      "inputs": [],
      "stateMutability": "nonpayable",
      "type": "constructor"
    },
    {
      "anonymous": false,
      "inputs": [
        {
          "indexed": true,
          "internalType": "bytes32",
          "name": "hash",
          "type": "bytes32"
        },
        {
          "indexed": true,
          "internalType": "address",
          "name": "student",
          "type": "address"
        },
        {
          "indexed": true,
          "internalType": "address",
          "name": "issuer",
          "type": "address"
        },
        {
          "indexed": false,
          "internalType": "string",
          "name": "cid",
          "type": "string"
        }
      ],
      "name": "CertificateIssued",
      "type": "event"
    },
    {
      "anonymous": false,
      "inputs": [
        {
          "indexed": true,
          "internalType": "bytes32",
          "name": "hash",
          "type": "bytes32"
        },
        {
          "indexed": true,
          "internalType": "address",
          "name": "issuer",
          "type": "address"
        }
      ],
      "name": "CertificateRevoked",
      "type": "event"
    },
    {
      "anonymous": false,
      "inputs": [
        {
          "indexed": true,
          "internalType": "address",
          "name": "university",
          "type": "address"
        },
        {
          "indexed": false,
          "internalType": "string",
          "name": "name",
          "type": "string"
        }
      ],
      "name": "UniversityAdded",
      "type": "event"
    },
    {
      "anonymous": false,
      "inputs": [
        {
          "indexed": true,
          "internalType": "address",
          "name": "university",
          "type": "address"
        }
      ],
      "name": "UniversityRemoved",
      "type": "event"
    },
    {
      "inputs": [
        {
          "internalType": "address",
          "name": "_university",
          "type": "address"
        },
        {
          "internalType": "string",
          "name": "_name",
          "type": "string"
        }
      ],
      "name": "addUniversity",
      "outputs": [],
      "stateMutability": "nonpayable",
      "type": "function"
    },
    {
      "inputs": [],
      "name": "admin",
      "outputs": [
        {
          "internalType": "address",
          "name": "",
          "type": "address"
        }
      ],
      "stateMutability": "view",
      "type": "function"
    },
    {
      "inputs": [
        {
          "internalType": "bytes32",
          "name": "",
          "type": "bytes32"
        }
      ],
      "name": "certificates",
      "outputs": [
        {
          "internalType": "string",
          "name": "studentName",
          "type": "string"
        },
        {
          "internalType": "string",
          "name": "universityName",
          "type": "string"
        },
        {
          "internalType": "string",
          "name": "cid",
          "type": "string"
        },
        {
          "internalType": "bool",
          "name": "valid",
          "type": "bool"
        },
        {
          "internalType": "address",
          "name": "issuer",
          "type": "address"
        },
        {
          "internalType": "address",
          "name": "student",
          "type": "address"
        },
        {
          "internalType": "uint256",
          "name": "timestamp",
          "type": "uint256"
        }
      ],
      "stateMutability": "view",
      "type": "function"
    },
    {
      "inputs": [
        {
          "internalType": "address",
          "name": "_student",
          "type": "address"
        }
      ],
      "name": "getStudentCertificates",
      "outputs": [
        {
          "internalType": "bytes32[]",
          "name": "",
          "type": "bytes32[]"
        }
      ],
      "stateMutability": "view",
      "type": "function"
    },
    {
      "inputs": [
        {
          "internalType": "address",
          "name": "_university",
          "type": "address"
        }
      ],
      "name": "getUniversityIssuedCertificates",
      "outputs": [
        {
          "internalType": "bytes32[]",
          "name": "",
          "type": "bytes32[]"
        }
      ],
      "stateMutability": "view",
      "type": "function"
    },
    {
      "inputs": [
        {
          "internalType": "address",
          "name": "_university",
          "type": "address"
        }
      ],
      "name": "getUniversityName",
      "outputs": [
        {
          "internalType": "string",
          "name": "",
          "type": "string"
        }
      ],
      "stateMutability": "view",
      "type": "function"
    },
    {
      "inputs": [
        {
          "internalType": "bytes32",
          "name": "_hash",
          "type": "bytes32"
        },
        {
          "internalType": "string",
          "name": "_studentName",
          "type": "string"
        },
        {
          "internalType": "string",
          "name": "_cid",
          "type": "string"
        },
        {
          "internalType": "address",
          "name": "_student",
          "type": "address"
        }
      ],
      "name": "issueCertificate",
      "outputs": [],
      "stateMutability": "nonpayable",
      "type": "function"
    },
    {
      "inputs": [
        {
          "internalType": "address",
          "name": "",
          "type": "address"
        },
        {
          "internalType": "uint256",
          "name": "",
          "type": "uint256"
        }
      ],
      "name": "issuedByUniversity",
      "outputs": [
        {
          "internalType": "bytes32",
          "name": "",
          "type": "bytes32"
        }
      ],
      "stateMutability": "view",
      "type": "function"
    },
    {
      "inputs": [
        {
          "internalType": "address",
          "name": "_university",
          "type": "address"
        }
      ],
      "name": "removeUniversity",
      "outputs": [],
      "stateMutability": "nonpayable",
      "type": "function"
    },
    {
      "inputs": [
        {
          "internalType": "bytes32",
          "name": "_hash",
          "type": "bytes32"
        }
      ],
      "name": "revokeCertificate",
      "outputs": [],
      "stateMutability": "nonpayable",
      "type": "function"
    },
    {
      "inputs": [
        {
          "internalType": "address",
          "name": "",
          "type": "address"
        },
        {
          "internalType": "uint256",
          "name": "",
          "type": "uint256"
        }
      ],
      "name": "studentCertificates",
      "outputs": [
        {
          "internalType": "bytes32",
          "name": "",
          "type": "bytes32"
        }
      ],
      "stateMutability": "view",
      "type": "function"
    },
    {
      "inputs": [
        {
          "internalType": "address",
          "name": "",
          "type": "address"
        }
      ],
      "name": "universities",
      "outputs": [
        {
          "internalType": "bool",
          "name": "",
          "type": "bool"
        }
      ],
      "stateMutability": "view",
      "type": "function"
    },
    {
      "inputs": [
        {
          "internalType": "address",
          "name": "",
          "type": "address"
        }
      ],
      "name": "universityNames",
      "outputs": [
        {
          "internalType": "string",
          "name": "",
          "type": "string"
        }
      ],
      "stateMutability": "view",
      "type": "function"
    },
    {
      "inputs": [
        {
          "internalType": "bytes32",
          "name": "_hash",
          "type": "bytes32"
        }
      ],
      "name": "verifyCertificate",
      "outputs": [
        {
          "internalType": "string",
          "name": "studentName",
          "type": "string"
        },
        {
          "internalType": "string",
          "name": "universityName",
          "type": "string"
        },
        {
          "internalType": "string",
          "name": "cid",
          "type": "string"
        },
        {
          "internalType": "address",
          "name": "issuer",
          "type": "address"
        },
        {
          "internalType": "bool",
          "name": "isValid",
          "type": "bool"
        },
        {
          "internalType": "uint256",
          "name": "timestamp",
          "type": "uint256"
        }
      ],
      "stateMutability": "view",
      "type": "function"
    }
  ],
  "bytecode": "0x608060405234801561001057600080fd5b50336000806101000a81548173ffffffffffffffffffffffffffffffffffffffff021916908373ffffffffffffffffffffffffffffffffffffffff160217905550612471806100606000396000f3fe608060405234801561001057600080fd5b50600436106100ea5760003560e01c8063b722dea11161008c578063ebc63bc011610066578063ebc63bc01461028a578063ee8988d2146102ba578063f0995560146102ea578063f851a4401461031a576100ea565b8063b722dea11461020e578063c3934f0e1461023e578063c6cbc52a1461026e576100ea565b8063742f0688116100c8578063742f068814610157578063850c17681461018d578063882f0403146101c2578063a908dc62146101f2576100ea565b806328f54b2f146100ef5780632cbac2131461010b578063655456991461013b575b600080fd5b610109600480360381019061010491906116c4565b610338565b005b61012560048036038101906101209190611727565b6104f0565b6040516101329190611780565b60405180910390f35b6101556004803603810190610150919061190d565b610521565b005b610171600480360381019061016c91906119ac565b6109f1565b6040516101849796959493929190611a91565b60405180910390f35b6101a760048036038101906101a291906119ac565b610c18565b6040516101b996959493929190611b15565b60405180910390f35b6101dc60048036038101906101d791906116c4565b610efe565b6040516101e99190611b8b565b60405180910390f35b61020c60048036038101906102079190611bad565b610fcf565b005b610228600480360381019061022391906116c4565b611206565b6040516102359190611b8b565b60405180910390f35b61025860048036038101906102539190611727565b6112a6565b6040516102659190611780565b60405180910390f35b610288600480360381019061028391906119ac565b6112d7565b005b6102a4600480360381019061029f91906116c4565b6114e0565b6040516102b19190611cc7565b60405180910390f35b6102d460048036038101906102cf91906116c4565b611577565b6040516102e19190611cc7565b60405180910390f35b61030460048036038101906102ff91906116c4565b61160e565b6040516103119190611ce9565b60405180910390f35b61032261162e565b60405161032f9190611d04565b60405180910390f35b60008054906101000a900473ffffffffffffffffffffffffffffffffffffffff1673ffffffffffffffffffffffffffffffffffffffff163373ffffffffffffffffffffffffffffffffffffffff16146103c6576040517f08c379a00000000000000000000000000000000000000000000000000000000081526004016103bd90611d91565b60405180910390fd5b600160008273ffffffffffffffffffffffffffffffffffffffff1673ffffffffffffffffffffffffffffffffffffffff16815260200190815260200160002060009054906101000a900460ff16610452576040517f08c379a000000000000000000000000000000000000000000000000000000000815260040161044990611dfd565b60405180910390fd5b6000600160008373ffffffffffffffffffffffffffffffffffffffff1673ffffffffffffffffffffffffffffffffffffffff16815260200190815260200160002060006101000a81548160ff0219169083151502179055508073ffffffffffffffffffffffffffffffffffffffff167f2ad4ce55dbf197589d24f6a11ebec345d1a50286aae2e4cc6f69c7aad1fadde060405160405180910390a250565b6004602052816000526040600020818154811061050c57600080fd5b90600052602060002001600091509150505481565b600160003373ffffffffffffffffffffffffffffffffffffffff1673ffffffffffffffffffffffffffffffffffffffff16815260200190815260200160002060009054906101000a900460ff166105ad576040517f08c379a00000000000000000000000000000000000000000000000000000000081526004016105a490611e8f565b60405180910390fd5b600073ffffffffffffffffffffffffffffffffffffffff168173ffffffffffffffffffffffffffffffffffffffff160361061c576040517f08c379a000000000000000000000000000000000000000000000000000000000815260040161061390611efb565b60405180910390fd5b6003600085815260200190815260200160002060030160009054906101000a900460ff1615610680576040517f08c379a000000000000000000000000000000000000000000000000000000000815260040161067790611f67565b60405180910390fd5b6040518060e00160405280848152602001600260003373ffffffffffffffffffffffffffffffffffffffff1673ffffffffffffffffffffffffffffffffffffffff16815260200190815260200160002080546106db90611fb6565b80601f016020809104026020016040519081016040528092919081815260200182805461070790611fb6565b80156107545780601f1061072957610100808354040283529160200191610754565b820191906000526020600020905b81548152906001019060200180831161073757829003601f168201915b505050505081526020018381526020016001151581526020013373ffffffffffffffffffffffffffffffffffffffff1681526020018273ffffffffffffffffffffffffffffffffffffffff168152602001428152506003600086815260200190815260200160002060008201518160000190816107d19190612193565b5060208201518160010190816107e79190612193565b5060408201518160020190816107fd9190612193565b5060608201518160030160006101000a81548160ff02191690831515021790555060808201518160030160016101000a81548173ffffffffffffffffffffffffffffffffffffffff021916908373ffffffffffffffffffffffffffffffffffffffff16021790555060a08201518160040160006101000a81548173ffffffffffffffffffffffffffffffffffffffff021916908373ffffffffffffffffffffffffffffffffffffffff16021790555060c08201518160050155905050600560008273ffffffffffffffffffffffffffffffffffffffff1673ffffffffffffffffffffffffffffffffffffffff168152602001908152602001600020849080600181540180825580915050600190039060005260206000200160009091909190915055600460003373ffffffffffffffffffffffffffffffffffffffff1673ffffffffffffffffffffffffffffffffffffffff1681526020019081526020016000208490806001815401808255809150506001900390600052602060002001600090919091909150553373ffffffffffffffffffffffffffffffffffffffff168173ffffffffffffffffffffffffffffffffffffffff16857fbc4a4f0fa0098f904f89c1a5c16b7f86f04fe4777297b1196ab18bdde928ffb5856040516109e39190611b8b565b60405180910390a450505050565b6003602052806000526040600020600091509050806000018054610a1490611fb6565b80601f0160208091040260200160405190810160405280929190818152602001828054610a4090611fb6565b8015610a8d5780601f10610a6257610100808354040283529160200191610a8d565b820191906000526020600020905b815481529060010190602001808311610a7057829003601f168201915b505050505090806001018054610aa290611fb6565b80601f0160208091040260200160405190810160405280929190818152602001828054610ace90611fb6565b8015610b1b5780601f10610af057610100808354040283529160200191610b1b565b820191906000526020600020905b815481529060010190602001808311610afe57829003601f168201915b505050505090806002018054610b3090611fb6565b80601f0160208091040260200160405190810160405280929190818152602001828054610b5c90611fb6565b8015610ba95780601f10610b7e57610100808354040283529160200191610ba9565b820191906000526020600020905b815481529060010190602001808311610b8c57829003601f168201915b5050505050908060030160009054906101000a900460ff16908060030160019054906101000a900473ffffffffffffffffffffffffffffffffffffffff16908060040160009054906101000a900473ffffffffffffffffffffffffffffffffffffffff16908060050154905087565b6060806060600080600080600360008981526020019081526020016000206040518060e0016040529081600082018054610c5190611fb6565b80601f0160208091040260200160405190810160405280929190818152602001828054610c7d90611fb6565b8015610cca5780601f10610c9f57610100808354040283529160200191610cca565b820191906000526020600020905b815481529060010190602001808311610cad57829003601f168201915b50505050508152602001600182018054610ce390611fb6565b80601f0160208091040260200160405190810160405280929190818152602001828054610d0f90611fb6565b8015610d5c5780601f10610d3157610100808354040283529160200191610d5c565b820191906000526020600020905b815481529060010190602001808311610d3f57829003601f168201915b50505050508152602001600282018054610d7590611fb6565b80601f0160208091040260200160405190810160405280929190818152602001828054610da190611fb6565b8015610dee5780601f10610dc357610100808354040283529160200191610dee565b820191906000526020600020905b815481529060010190602001808311610dd157829003601f168201915b505050505081526020016003820160009054906101000a900460ff161515151581526020016003820160019054906101000a900473ffffffffffffffffffffffffffffffffffffffff1673ffffffffffffffffffffffffffffffffffffffff1673ffffffffffffffffffffffffffffffffffffffff1681526020016004820160009054906101000a900473ffffffffffffffffffffffffffffffffffffffff1673ffffffffffffffffffffffffffffffffffffffff1673ffffffffffffffffffffffffffffffffffffffff1681526020016005820154815250509050806000015181602001518260400151836080015184606001518560c001519650965096509650965096505091939550919395565b6060600260008373ffffffffffffffffffffffffffffffffffffffff1673ffffffffffffffffffffffffffffffffffffffff1681526020019081526020016000208054610f4a90611fb6565b80601f0160208091040260200160405190810160405280929190818152602001828054610f7690611fb6565b8015610fc35780601f10610f9857610100808354040283529160200191610fc3565b820191906000526020600020905b815481529060010190602001808311610fa657829003601f168201915b50505050509050919050565b60008054906101000a900473ffffffffffffffffffffffffffffffffffffffff1673ffffffffffffffffffffffffffffffffffffffff163373ffffffffffffffffffffffffffffffffffffffff161461105d576040517f08c379a000000000000000000000000000000000000000000000000000000000815260040161105490611d91565b60405180910390fd5b600073ffffffffffffffffffffffffffffffffffffffff168273ffffffffffffffffffffffffffffffffffffffff16036110cc576040517f08c379a00000000000000000000000000000000000000000000000000000000081526004016110c3906122b1565b60405180910390fd5b6000815111611110576040517f08c379a00000000000000000000000000000000000000000000000000000000081526004016111079061231d565b60405180910390fd5b60018060008473ffffffffffffffffffffffffffffffffffffffff1673ffffffffffffffffffffffffffffffffffffffff16815260200190815260200160002060006101000a81548160ff02191690831515021790555080600260008473ffffffffffffffffffffffffffffffffffffffff1673ffffffffffffffffffffffffffffffffffffffff16815260200190815260200160002090816111b39190612193565b508173ffffffffffffffffffffffffffffffffffffffff167fec1e06e5bcd47cc0ab9791be5856f0e0bab5a2be711f3f3fd979d4c694c7c1f9826040516111fa9190611b8b565b60405180910390a25050565b6002602052806000526040600020600091509050805461122590611fb6565b80601f016020809104026020016040519081016040528092919081815260200182805461125190611fb6565b801561129e5780601f106112735761010080835404028352916020019161129e565b820191906000526020600020905b81548152906001019060200180831161128157829003601f168201915b505050505081565b600560205281600052604060002081815481106112c257600080fd5b90600052602060002001600091509150505481565b600160003373ffffffffffffffffffffffffffffffffffffffff1673ffffffffffffffffffffffffffffffffffffffff16815260200190815260200160002060009054906101000a900460ff16611363576040517f08c379a000000000000000000000000000000000000000000000000000000000815260040161135a90611e8f565b60405180910390fd5b6003600082815260200190815260200160002060030160009054906101000a900460ff166113c6576040517f08c379a00000000000000000000000000000000000000000000000000000000081526004016113bd90612389565b60405180910390fd5b3373ffffffffffffffffffffffffffffffffffffffff166003600083815260200190815260200160002060030160019054906101000a900473ffffffffffffffffffffffffffffffffffffffff1673ffffffffffffffffffffffffffffffffffffffff161461146a576040517f08c379a00000000000000000000000000000000000000000000000000000000081526004016114619061241b565b60405180910390fd5b60006003600083815260200190815260200160002060030160006101000a81548160ff0219169083151502179055503373ffffffffffffffffffffffffffffffffffffffff16817f1dbd7f0554a6447214abb6405781d5ee119037a7024fcb7fffd542c3c12cd77660405160405180910390a350565b6060600560008373ffffffffffffffffffffffffffffffffffffffff1673ffffffffffffffffffffffffffffffffffffffff16815260200190815260200160002080548060200260200160405190810160405280929190818152602001828054801561156b57602002820191906000526020600020905b815481526020019060010190808311611557575b50505050509050919050565b6060600460008373ffffffffffffffffffffffffffffffffffffffff1673ffffffffffffffffffffffffffffffffffffffff16815260200190815260200160002080548060200260200160405190810160405280929190818152602001828054801561160257602002820191906000526020600020905b8154815260200190600101908083116115ee575b50505050509050919050565b60016020528060005260406000206000915054906101000a900460ff1681565b60008054906101000a900473ffffffffffffffffffffffffffffffffffffffff1681565b6000604051905090565b600080fd5b600080fd5b600073ffffffffffffffffffffffffffffffffffffffff82169050919050565b600061169182611666565b9050919050565b6116a181611686565b81146116ac57600080fd5b50565b6000813590506116be81611698565b92915050565b6000602082840312156116da576116d961165c565b5b60006116e8848285016116af565b91505092915050565b6000819050919050565b611704816116f1565b811461170f57600080fd5b50565b600081359050611721816116fb565b92915050565b6000806040838503121561173e5761173d61165c565b5b600061174c858286016116af565b925050602061175d85828601611712565b9150509250929050565b6000819050919050565b61177a81611767565b82525050565b60006020820190506117956000830184611771565b92915050565b6117a481611767565b81146117af57600080fd5b50565b6000813590506117c18161179b565b92915050565b600080fd5b600080fd5b6000601f19601f8301169050919050565b7f4e487b7100000000000000000000000000000000000000000000000000000000600052604160045260246000fd5b61181a826117d1565b810181811067ffffffffffffffff82111715611839576118386117e2565b5b80604052505050565b600061184c611652565b90506118588282611811565b919050565b600067ffffffffffffffff821115611878576118776117e2565b5b611881826117d1565b9050602081019050919050565b82818337600083830152505050565b60006118b06118ab8461185d565b611842565b9050828152602081018484840111156118cc576118cb6117cc565b5b6118d784828561188e565b509392505050565b600082601f8301126118f4576118f36117c7565b5b813561190484826020860161189d565b91505092915050565b600080600080608085870312156119275761192661165c565b5b6000611935878288016117b2565b945050602085013567ffffffffffffffff81111561195657611955611661565b5b611962878288016118df565b935050604085013567ffffffffffffffff81111561198357611982611661565b5b61198f878288016118df565b92505060606119a0878288016116af565b91505092959194509250565b6000602082840312156119c2576119c161165c565b5b60006119d0848285016117b2565b91505092915050565b600081519050919050565b600082825260208201905092915050565b60005b83811015611a135780820151818401526020810190506119f8565b60008484015250505050565b6000611a2a826119d9565b611a3481856119e4565b9350611a448185602086016119f5565b611a4d816117d1565b840191505092915050565b60008115159050919050565b611a6d81611a58565b82525050565b611a7c81611686565b82525050565b611a8b816116f1565b82525050565b600060e0820190508181036000830152611aab818a611a1f565b90508181036020830152611abf8189611a1f565b90508181036040830152611ad38188611a1f565b9050611ae26060830187611a64565b611aef6080830186611a73565b611afc60a0830185611a73565b611b0960c0830184611a82565b98975050505050505050565b600060c0820190508181036000830152611b2f8189611a1f565b90508181036020830152611b438188611a1f565b90508181036040830152611b578187611a1f565b9050611b666060830186611a73565b611b736080830185611a64565b611b8060a0830184611a82565b979650505050505050565b60006020820190508181036000830152611ba58184611a1f565b905092915050565b60008060408385031215611bc457611bc361165c565b5b6000611bd2858286016116af565b925050602083013567ffffffffffffffff811115611bf357611bf2611661565b5b611bff858286016118df565b9150509250929050565b600081519050919050565b600082825260208201905092915050565b6000819050602082019050919050565b611c3e81611767565b82525050565b6000611c508383611c35565b60208301905092915050565b6000602082019050919050565b6000611c7482611c09565b611c7e8185611c14565b9350611c8983611c25565b8060005b83811015611cba578151611ca18882611c44565b9750611cac83611c5c565b925050600181019050611c8d565b5085935050505092915050565b60006020820190508181036000830152611ce18184611c69565b905092915050565b6000602082019050611cfe6000830184611a64565b92915050565b6000602082019050611d196000830184611a73565b92915050565b7f4f6e6c792061646d696e2063616e2063616c6c20746869732066756e6374696f60008201527f6e00000000000000000000000000000000000000000000000000000000000000602082015250565b6000611d7b6021836119e4565b9150611d8682611d1f565b604082019050919050565b60006020820190508181036000830152611daa81611d6e565b9050919050565b7f556e6976657273697479206e6f7420666f756e64000000000000000000000000600082015250565b6000611de76014836119e4565b9150611df282611db1565b602082019050919050565b60006020820190508181036000830152611e1681611dda565b9050919050565b7f4f6e6c792077686974656c697374656420756e69766572736974792063616e2060008201527f63616c6c20746869732066756e6374696f6e0000000000000000000000000000602082015250565b6000611e796032836119e4565b9150611e8482611e1d565b604082019050919050565b60006020820190508181036000830152611ea881611e6c565b9050919050565b7f496e76616c69642073747564656e742061646472657373000000000000000000600082015250565b6000611ee56017836119e4565b9150611ef082611eaf565b602082019050919050565b60006020820190508181036000830152611f1481611ed8565b9050919050565b7f436572746966696361746520616c726561647920657869737473000000000000600082015250565b6000611f51601a836119e4565b9150611f5c82611f1b565b602082019050919050565b60006020820190508181036000830152611f8081611f44565b9050919050565b7f4e487b7100000000000000000000000000000000000000000000000000000000600052602260045260246000fd5b60006002820490506001821680611fce57607f821691505b602082108103611fe157611fe0611f87565b5b50919050565b60008190508160005260206000209050919050565b60006020601f8301049050919050565b600082821b905092915050565b6000600883026120497fffffffffffffffffffffffffffffffffffffffffffffffffffffffffffffffff8261200c565b612053868361200c565b95508019841693508086168417925050509392505050565b6000819050919050565b600061209061208b612086846116f1565b61206b565b6116f1565b9050919050565b6000819050919050565b6120aa83612075565b6120be6120b682612097565b848454612019565b825550505050565b600090565b6120d36120c6565b6120de8184846120a1565b505050565b5b81811015612102576120f76000826120cb565b6001810190506120e4565b5050565b601f8211156121475761211881611fe7565b61212184611ffc565b81016020851015612130578190505b61214461213c85611ffc565b8301826120e3565b50505b505050565b600082821c905092915050565b600061216a6000198460080261214c565b1980831691505092915050565b60006121838383612159565b9150826002028217905092915050565b61219c826119d9565b67ffffffffffffffff8111156121b5576121b46117e2565b5b6121bf8254611fb6565b6121ca828285612106565b600060209050601f8311600181146121fd57600084156121eb578287015190505b6121f58582612177565b86555061225d565b601f19841661220b86611fe7565b60005b828110156122335784890151825560018201915060208501945060208101905061220e565b86831015612250578489015161224c601f891682612159565b8355505b6001600288020188555050505b505050505050565b7f496e76616c696420616464726573730000000000000000000000000000000000600082015250565b600061229b600f836119e4565b91506122a682612265565b602082019050919050565b600060208201905081810360008301526122ca8161228e565b9050919050565b7f556e6976657273697479206e616d652072657175697265640000000000000000600082015250565b60006123076018836119e4565b9150612312826122d1565b602082019050919050565b60006020820190508181036000830152612336816122fa565b9050919050565b7f4e6f7420616e2061637469766520636572746966696361746500000000000000600082015250565b60006123736019836119e4565b915061237e8261233d565b602082019050919050565b600060208201905081810360008301526123a281612366565b9050919050565b7f4f6e6c7920746865206f726967696e616c206973737565722063616e2072657660008201527f6f6b650000000000000000000000000000000000000000000000000000000000602082015250565b60006124056023836119e4565b9150612410826123a9565b604082019050919050565b60006020820190508181036000830152612434816123f8565b905091905056fea2646970667358221220338c429c3dcf44cdc21886f8be72dfc330d01833cdd9e080416a955a06a824b164736f6c63430008140033",
  "linkReferences": {},
  "deployedLinkReferences": {}
}