{
  "_format": "hh-sol-artifact-1",
  "contractName": "Certificate",
  "sourceName": "contracts/Certificate.sol",
  "abi": [
    {
      "inputs": [
        {
          "internalType": "bytes32",
          "name": "",
          "type": "bytes32"
        }
      ],
      "name": "certificates",
      "outputs": [
        {
          "internalType": "string",
          "name": "studentName",
          "type": "string"
        },
        {
          "internalType": "string",
          "name": "cid",
          "type": "string"
        },
        {
          "internalType": "bool",
          "name": "exists",
          "type": "bool"
        }
      ],
      "stateMutability": "view",
      "type": "function"
    },
    {
      "inputs": [
        {
          "internalType": "bytes32",
          "name": "_hash",
          "type": "bytes32"
        },
        {
          "internalType": "string",
          "name": "_studentName",
          "type": "string"
        },
        {
          "internalType": "string",
          "name": "_cid",
          "type": "string"
        }
      ],
      "name": "issueCertificate",
      "outputs": [],
      "stateMutability": "nonpayable",
      "type": "function"
    },
    {
      "inputs": [
        {
          "internalType": "bytes32",
          "name": "_hash",
          "type": "bytes32"
        }
      ],
      "name": "verifyCertificate",
      "outputs": [
        {
          "internalType": "string",
          "name": "",
          "type": "string"
        },
        {
          "internalType": "string",
          "name": "",
          "type": "string"
        },
        {
          "internalType": "bool",
          "name": "",
          "type": "bool"
        }
      ],
      "stateMutability": "view",
      "type": "function"
    }
  ],
  "bytecode": "0x608060405234801561001057600080fd5b50610a57806100206000396000f3fe608060405234801561001057600080fd5b50600436106100415760003560e01c8063742f068814610046578063850c176814610078578063abde212b146100aa575b600080fd5b610060600480360381019061005b919061045c565b6100c6565b60405161006f93929190610534565b60405180910390f35b610092600480360381019061008d919061045c565b61020d565b6040516100a193929190610534565b60405180910390f35b6100c460048036038101906100bf91906106ae565b61038e565b005b60006020528060005260406000206000915090508060000180546100e990610768565b80601f016020809104026020016040519081016040528092919081815260200182805461011590610768565b80156101625780601f1061013757610100808354040283529160200191610162565b820191906000526020600020905b81548152906001019060200180831161014557829003601f168201915b50505050509080600101805461017790610768565b80601f01602080910402602001604051908101604052809291908181526020018280546101a390610768565b80156101f05780601f106101c5576101008083540402835291602001916101f0565b820191906000526020600020905b8154815290600101906020018083116101d357829003601f168201915b5050505050908060020160009054906101000a900460ff16905083565b60608060008060008086815260200190815260200160002060405180606001604052908160008201805461024090610768565b80601f016020809104026020016040519081016040528092919081815260200182805461026c90610768565b80156102b95780601f1061028e576101008083540402835291602001916102b9565b820191906000526020600020905b81548152906001019060200180831161029c57829003601f168201915b505050505081526020016001820180546102d290610768565b80601f01602080910402602001604051908101604052809291908181526020018280546102fe90610768565b801561034b5780601f106103205761010080835404028352916020019161034b565b820191906000526020600020905b81548152906001019060200180831161032e57829003601f168201915b505050505081526020016002820160009054906101000a900460ff1615151515815250509050806000015181602001518260400151935093509350509193909250565b60405180606001604052808381526020018281526020016001151581525060008085815260200190815260200160002060008201518160000190816103d3919061094f565b5060208201518160010190816103e9919061094f565b5060408201518160020160006101000a81548160ff021916908315150217905550905050505050565b6000604051905090565b600080fd5b600080fd5b6000819050919050565b61043981610426565b811461044457600080fd5b50565b60008135905061045681610430565b92915050565b6000602082840312156104725761047161041c565b5b600061048084828501610447565b91505092915050565b600081519050919050565b600082825260208201905092915050565b60005b838110156104c35780820151818401526020810190506104a8565b60008484015250505050565b6000601f19601f8301169050919050565b60006104eb82610489565b6104f58185610494565b93506105058185602086016104a5565b61050e816104cf565b840191505092915050565b60008115159050919050565b61052e81610519565b82525050565b6000606082019050818103600083015261054e81866104e0565b9050818103602083015261056281856104e0565b90506105716040830184610525565b949350505050565b600080fd5b600080fd5b7f4e487b7100000000000000000000000000000000000000000000000000000000600052604160045260246000fd5b6105bb826104cf565b810181811067ffffffffffffffff821117156105da576105d9610583565b5b80604052505050565b60006105ed610412565b90506105f982826105b2565b919050565b600067ffffffffffffffff82111561061957610618610583565b5b610622826104cf565b9050602081019050919050565b82818337600083830152505050565b600061065161064c846105fe565b6105e3565b90508281526020810184848401111561066d5761066c61057e565b5b61067884828561062f565b509392505050565b600082601f83011261069557610694610579565b5b81356106a584826020860161063e565b91505092915050565b6000806000606084860312156106c7576106c661041c565b5b60006106d586828701610447565b935050602084013567ffffffffffffffff8111156106f6576106f5610421565b5b61070286828701610680565b925050604084013567ffffffffffffffff81111561072357610722610421565b5b61072f86828701610680565b9150509250925092565b7f4e487b7100000000000000000000000000000000000000000000000000000000600052602260045260246000fd5b6000600282049050600182168061078057607f821691505b60208210810361079357610792610739565b5b50919050565b60008190508160005260206000209050919050565b60006020601f8301049050919050565b600082821b905092915050565b6000600883026107fb7fffffffffffffffffffffffffffffffffffffffffffffffffffffffffffffffff826107be565b61080586836107be565b95508019841693508086168417925050509392505050565b6000819050919050565b6000819050919050565b600061084c6108476108428461081d565b610827565b61081d565b9050919050565b6000819050919050565b61086683610831565b61087a61087282610853565b8484546107cb565b825550505050565b600090565b61088f610882565b61089a81848461085d565b505050565b5b818110156108be576108b3600082610887565b6001810190506108a0565b5050565b601f821115610903576108d481610799565b6108dd846107ae565b810160208510156108ec578190505b6109006108f8856107ae565b83018261089f565b50505b505050565b600082821c905092915050565b600061092660001984600802610908565b1980831691505092915050565b600061093f8383610915565b9150826002028217905092915050565b61095882610489565b67ffffffffffffffff81111561097157610970610583565b5b61097b8254610768565b6109868282856108c2565b600060209050601f8311600181146109b957600084156109a7578287015190505b6109b18582610933565b865550610a19565b601f1984166109c786610799565b60005b828110156109ef578489015182556001820191506020850194506020810190506109ca565b86831015610a0c5784890151610a08601f891682610915565b8355505b6001600288020188555050505b50505050505056fea26469706673582212201c60e6454f76e0dbae638ae0e65f3f3709dcb8ef32181e9b87990a4430caaf0064736f6c63430008140033",
  "linkReferences": {},
  "deployedLinkReferences": {}
}